{
  "contractName": "FDT_ERC20Extension",
  "abi": [
    {
      "constant": true,
      "inputs": [
        {
          "name": "_owner",
          "type": "address"
        }
      ],
      "name": "withdrawnFundsOf",
      "outputs": [
        {
          "name": "",
          "type": "uint256"
        }
      ],
      "payable": false,
      "stateMutability": "view",
      "type": "function",
      "signature": "0x0041c52c"
    },
    {
      "constant": true,
      "inputs": [],
      "name": "name",
      "outputs": [
        {
          "name": "",
          "type": "string"
        }
      ],
      "payable": false,
      "stateMutability": "view",
      "type": "function",
      "signature": "0x06fdde03"
    },
    {
      "constant": false,
      "inputs": [
        {
          "name": "spender",
          "type": "address"
        },
        {
          "name": "amount",
          "type": "uint256"
        }
      ],
      "name": "approve",
      "outputs": [
        {
          "name": "",
          "type": "bool"
        }
      ],
      "payable": false,
      "stateMutability": "nonpayable",
      "type": "function",
      "signature": "0x095ea7b3"
    },
    {
      "constant": true,
      "inputs": [],
      "name": "totalSupply",
      "outputs": [
        {
          "name": "",
          "type": "uint256"
        }
      ],
      "payable": false,
      "stateMutability": "view",
      "type": "function",
      "signature": "0x18160ddd"
    },
    {
      "constant": false,
      "inputs": [
        {
          "name": "sender",
          "type": "address"
        },
        {
          "name": "recipient",
          "type": "address"
        },
        {
          "name": "amount",
          "type": "uint256"
        }
      ],
      "name": "transferFrom",
      "outputs": [
        {
          "name": "",
          "type": "bool"
        }
      ],
      "payable": false,
      "stateMutability": "nonpayable",
      "type": "function",
      "signature": "0x23b872dd"
    },
    {
      "constant": true,
      "inputs": [],
      "name": "decimals",
      "outputs": [
        {
          "name": "",
          "type": "uint8"
        }
      ],
      "payable": false,
      "stateMutability": "view",
      "type": "function",
      "signature": "0x313ce567"
    },
    {
      "constant": false,
      "inputs": [
        {
          "name": "spender",
          "type": "address"
        },
        {
          "name": "addedValue",
          "type": "uint256"
        }
      ],
      "name": "increaseAllowance",
      "outputs": [
        {
          "name": "",
          "type": "bool"
        }
      ],
      "payable": false,
      "stateMutability": "nonpayable",
      "type": "function",
      "signature": "0x39509351"
    },
    {
      "constant": false,
      "inputs": [
        {
          "name": "account",
          "type": "address"
        },
        {
          "name": "amount",
          "type": "uint256"
        }
      ],
      "name": "mint",
      "outputs": [
        {
          "name": "",
          "type": "bool"
        }
      ],
      "payable": false,
      "stateMutability": "nonpayable",
      "type": "function",
      "signature": "0x40c10f19"
    },
    {
      "constant": true,
      "inputs": [
        {
          "name": "_owner",
          "type": "address"
        }
      ],
      "name": "withdrawableFundsOf",
      "outputs": [
        {
          "name": "",
          "type": "uint256"
        }
      ],
      "payable": false,
      "stateMutability": "view",
      "type": "function",
      "signature": "0x443bb293"
    },
    {
      "constant": true,
      "inputs": [
        {
          "name": "_owner",
          "type": "address"
        }
      ],
      "name": "accumulativeFundsOf",
      "outputs": [
        {
          "name": "",
          "type": "uint256"
        }
      ],
      "payable": false,
      "stateMutability": "view",
      "type": "function",
      "signature": "0x4e97415f"
    },
    {
      "constant": true,
      "inputs": [],
      "name": "fundsToken",
      "outputs": [
        {
          "name": "",
          "type": "address"
        }
      ],
      "payable": false,
      "stateMutability": "view",
      "type": "function",
      "signature": "0x63f04b15"
    },
    {
      "constant": true,
      "inputs": [
        {
          "name": "account",
          "type": "address"
        }
      ],
      "name": "balanceOf",
      "outputs": [
        {
          "name": "",
          "type": "uint256"
        }
      ],
      "payable": false,
      "stateMutability": "view",
      "type": "function",
      "signature": "0x70a08231"
    },
    {
      "constant": true,
      "inputs": [],
      "name": "symbol",
      "outputs": [
        {
          "name": "",
          "type": "string"
        }
      ],
      "payable": false,
      "stateMutability": "view",
      "type": "function",
      "signature": "0x95d89b41"
    },
    {
      "constant": false,
      "inputs": [
        {
          "name": "account",
          "type": "address"
        }
      ],
      "name": "addMinter",
      "outputs": [],
      "payable": false,
      "stateMutability": "nonpayable",
      "type": "function",
      "signature": "0x983b2d56"
    },
    {
      "constant": false,
      "inputs": [],
      "name": "renounceMinter",
      "outputs": [],
      "payable": false,
      "stateMutability": "nonpayable",
      "type": "function",
      "signature": "0x98650275"
    },
    {
      "constant": false,
      "inputs": [
        {
          "name": "spender",
          "type": "address"
        },
        {
          "name": "subtractedValue",
          "type": "uint256"
        }
      ],
      "name": "decreaseAllowance",
      "outputs": [
        {
          "name": "",
          "type": "bool"
        }
      ],
      "payable": false,
      "stateMutability": "nonpayable",
      "type": "function",
      "signature": "0xa457c2d7"
    },
    {
      "constant": false,
      "inputs": [
        {
          "name": "recipient",
          "type": "address"
        },
        {
          "name": "amount",
          "type": "uint256"
        }
      ],
      "name": "transfer",
      "outputs": [
        {
          "name": "",
          "type": "bool"
        }
      ],
      "payable": false,
      "stateMutability": "nonpayable",
      "type": "function",
      "signature": "0xa9059cbb"
    },
    {
      "constant": true,
      "inputs": [],
      "name": "fundsTokenBalance",
      "outputs": [
        {
          "name": "",
          "type": "uint256"
        }
      ],
      "payable": false,
      "stateMutability": "view",
      "type": "function",
      "signature": "0xa9691f3f"
    },
    {
      "constant": true,
      "inputs": [
        {
          "name": "account",
          "type": "address"
        }
      ],
      "name": "isMinter",
      "outputs": [
        {
          "name": "",
          "type": "bool"
        }
      ],
      "payable": false,
      "stateMutability": "view",
      "type": "function",
      "signature": "0xaa271e1a"
    },
    {
      "constant": true,
      "inputs": [
        {
          "name": "owner",
          "type": "address"
        },
        {
          "name": "spender",
          "type": "address"
        }
      ],
      "name": "allowance",
      "outputs": [
        {
          "name": "",
          "type": "uint256"
        }
      ],
      "payable": false,
      "stateMutability": "view",
      "type": "function",
      "signature": "0xdd62ed3e"
    },
    {
      "inputs": [
        {
          "name": "name",
          "type": "string"
        },
        {
          "name": "symbol",
          "type": "string"
        },
        {
          "name": "_fundsToken",
          "type": "address"
        }
      ],
      "payable": false,
      "stateMutability": "nonpayable",
      "type": "constructor",
      "signature": "constructor"
    },
    {
      "anonymous": false,
      "inputs": [
        {
          "indexed": true,
          "name": "account",
          "type": "address"
        }
      ],
      "name": "MinterAdded",
      "type": "event",
      "signature": "0x6ae172837ea30b801fbfcdd4108aa1d5bf8ff775444fd70256b44e6bf3dfc3f6"
    },
    {
      "anonymous": false,
      "inputs": [
        {
          "indexed": true,
          "name": "account",
          "type": "address"
        }
      ],
      "name": "MinterRemoved",
      "type": "event",
      "signature": "0xe94479a9f7e1952cc78f2d6baab678adc1b772d936c6583def489e524cb66692"
    },
    {
      "anonymous": false,
      "inputs": [
        {
          "indexed": true,
          "name": "from",
          "type": "address"
        },
        {
          "indexed": true,
          "name": "to",
          "type": "address"
        },
        {
          "indexed": false,
          "name": "value",
          "type": "uint256"
        }
      ],
      "name": "Transfer",
      "type": "event",
      "signature": "0xddf252ad1be2c89b69c2b068fc378daa952ba7f163c4a11628f55a4df523b3ef"
    },
    {
      "anonymous": false,
      "inputs": [
        {
          "indexed": true,
          "name": "owner",
          "type": "address"
        },
        {
          "indexed": true,
          "name": "spender",
          "type": "address"
        },
        {
          "indexed": false,
          "name": "value",
          "type": "uint256"
        }
      ],
      "name": "Approval",
      "type": "event",
      "signature": "0x8c5be1e5ebec7d5bd14f71427d1e84f3dd0314c0f7b2291e5b200ac8c7c3b925"
    },
    {
      "anonymous": false,
      "inputs": [
        {
          "indexed": true,
          "name": "by",
          "type": "address"
        },
        {
          "indexed": false,
          "name": "fundsDistributed",
          "type": "uint256"
        }
      ],
      "name": "FundsDistributed",
      "type": "event",
      "signature": "0x26536799ace2c3dbe12e638ec3ade6b4173dcf1289be0a58d51a5003015649bd"
    },
    {
      "anonymous": false,
      "inputs": [
        {
          "indexed": true,
          "name": "by",
          "type": "address"
        },
        {
          "indexed": false,
          "name": "fundsWithdrawn",
          "type": "uint256"
        }
      ],
      "name": "FundsWithdrawn",
      "type": "event",
      "signature": "0xeaff4b37086828766ad3268786972c0cd24259d4c87a80f9d3963a3c3d999b0d"
    },
    {
      "constant": false,
      "inputs": [],
      "name": "withdrawFunds",
      "outputs": [],
      "payable": false,
      "stateMutability": "nonpayable",
      "type": "function",
      "signature": "0x24600fc3"
    },
    {
      "constant": false,
      "inputs": [],
      "name": "payToContract",
      "outputs": [],
      "payable": false,
      "stateMutability": "nonpayable",
      "type": "function",
      "signature": "0x2aaf6af8"
    }
  ],
  "bytecode": "0x60806040523480156200001157600080fd5b506040516200313738038062003137833981018060405260608110156200003757600080fd5b8101908080516401000000008111156200005057600080fd5b828101905060208101848111156200006757600080fd5b81518560018202830111640100000000821117156200008557600080fd5b50509291906020018051640100000000811115620000a257600080fd5b82810190506020810184811115620000b957600080fd5b8151856001820283011164010000000082111715620000d757600080fd5b50509291906020018051906020019092919050505082828181601282600090805190602001906200010a92919062000511565b5081600190805190602001906200012392919062000511565b5080600260006101000a81548160ff021916908360ff160217905550505050620001746200015f6200028c640100000000026401000000009004565b62000294640100000000026401000000009004565b5050600073ffffffffffffffffffffffffffffffffffffffff168173ffffffffffffffffffffffffffffffffffffffff161415151562000242576040517f08c379a000000000000000000000000000000000000000000000000000000000815260040180806020018281038252602f8152602001807f4644545f4552433230457874656e73696f6e3a20494e56414c49445f46554e4481526020017f535f544f4b454e5f41444452455353000000000000000000000000000000000081525060400191505060405180910390fd5b80600a60006101000a81548173ffffffffffffffffffffffffffffffffffffffff021916908373ffffffffffffffffffffffffffffffffffffffff160217905550505050620005c0565b600033905090565b620002b8816006620002fe640100000000026200295c179091906401000000009004565b8073ffffffffffffffffffffffffffffffffffffffff167f6ae172837ea30b801fbfcdd4108aa1d5bf8ff775444fd70256b44e6bf3dfc3f660405160405180910390a250565b620003198282620003ed640100000000026401000000009004565b1515156200038f576040517f08c379a000000000000000000000000000000000000000000000000000000000815260040180806020018281038252601f8152602001807f526f6c65733a206163636f756e7420616c72656164792068617320726f6c650081525060200191505060405180910390fd5b60018260000160008373ffffffffffffffffffffffffffffffffffffffff1673ffffffffffffffffffffffffffffffffffffffff16815260200190815260200160002060006101000a81548160ff0219169083151502179055505050565b60008073ffffffffffffffffffffffffffffffffffffffff168273ffffffffffffffffffffffffffffffffffffffff1614151515620004ba576040517f08c379a00000000000000000000000000000000000000000000000000000000081526004018080602001828103825260228152602001807f526f6c65733a206163636f756e7420697320746865207a65726f20616464726581526020017f737300000000000000000000000000000000000000000000000000000000000081525060400191505060405180910390fd5b8260000160008373ffffffffffffffffffffffffffffffffffffffff1673ffffffffffffffffffffffffffffffffffffffff16815260200190815260200160002060009054906101000a900460ff16905092915050565b828054600181600116156101000203166002900490600052602060002090601f016020900481019282601f106200055457805160ff191683800117855562000585565b8280016001018555821562000585579182015b828111156200058457825182559160200191906001019062000567565b5b50905062000594919062000598565b5090565b620005bd91905b80821115620005b95760008160009055506001016200059f565b5090565b90565b612b6780620005d06000396000f3fe608060405260043610610127576000357c0100000000000000000000000000000000000000000000000000000000900463ffffffff16806241c52c1461012c57806306fdde0314610191578063095ea7b31461022157806318160ddd1461029457806323b872dd146102bf57806324600fc3146103525780632aaf6af814610369578063313ce5671461038057806339509351146103b157806340c10f1914610424578063443bb293146104975780634e97415f146104fc57806363f04b151461056157806370a08231146105b857806395d89b411461061d578063983b2d56146106ad57806398650275146106fe578063a457c2d714610715578063a9059cbb14610788578063a9691f3f146107fb578063aa271e1a14610826578063dd62ed3e1461088f575b600080fd5b34801561013857600080fd5b5061017b6004803603602081101561014f57600080fd5b81019080803573ffffffffffffffffffffffffffffffffffffffff169060200190929190505050610914565b6040518082815260200191505060405180910390f35b34801561019d57600080fd5b506101a661095d565b6040518080602001828103825283818151815260200191508051906020019080838360005b838110156101e65780820151818401526020810190506101cb565b50505050905090810190601f1680156102135780820380516001836020036101000a031916815260200191505b509250505060405180910390f35b34801561022d57600080fd5b5061027a6004803603604081101561024457600080fd5b81019080803573ffffffffffffffffffffffffffffffffffffffff169060200190929190803590602001909291905050506109ff565b604051808215151515815260200191505060405180910390f35b3480156102a057600080fd5b506102a9610a1d565b6040518082815260200191505060405180910390f35b3480156102cb57600080fd5b50610338600480360360608110156102e257600080fd5b81019080803573ffffffffffffffffffffffffffffffffffffffff169060200190929190803573ffffffffffffffffffffffffffffffffffffffff16906020019092919080359060200190929190505050610a27565b604051808215151515815260200191505060405180910390f35b34801561035e57600080fd5b50610367610b44565b005b34801561037557600080fd5b5061037e610cf6565b005b34801561038c57600080fd5b506103956110a6565b604051808260ff1660ff16815260200191505060405180910390f35b3480156103bd57600080fd5b5061040a600480360360408110156103d457600080fd5b81019080803573ffffffffffffffffffffffffffffffffffffffff169060200190929190803590602001909291905050506110bd565b604051808215151515815260200191505060405180910390f35b34801561043057600080fd5b5061047d6004803603604081101561044757600080fd5b81019080803573ffffffffffffffffffffffffffffffffffffffff16906020019092919080359060200190929190505050611170565b604051808215151515815260200191505060405180910390f35b3480156104a357600080fd5b506104e6600480360360208110156104ba57600080fd5b81019080803573ffffffffffffffffffffffffffffffffffffffff169060200190929190505050611230565b6040518082815260200191505060405180910390f35b34801561050857600080fd5b5061054b6004803603602081101561051f57600080fd5b81019080803573ffffffffffffffffffffffffffffffffffffffff169060200190929190505050611293565b6040518082815260200191505060405180910390f35b34801561056d57600080fd5b50610576611336565b604051808273ffffffffffffffffffffffffffffffffffffffff1673ffffffffffffffffffffffffffffffffffffffff16815260200191505060405180910390f35b3480156105c457600080fd5b50610607600480360360208110156105db57600080fd5b81019080803573ffffffffffffffffffffffffffffffffffffffff16906020019092919050505061135c565b6040518082815260200191505060405180910390f35b34801561062957600080fd5b506106326113a5565b6040518080602001828103825283818151815260200191508051906020019080838360005b83811015610672578082015181840152602081019050610657565b50505050905090810190601f16801561069f5780820380516001836020036101000a031916815260200191505b509250505060405180910390f35b3480156106b957600080fd5b506106fc600480360360208110156106d057600080fd5b81019080803573ffffffffffffffffffffffffffffffffffffffff169060200190929190505050611447565b005b34801561070a57600080fd5b506107136114fd565b005b34801561072157600080fd5b5061076e6004803603604081101561073857600080fd5b81019080803573ffffffffffffffffffffffffffffffffffffffff1690602001909291908035906020019092919050505061150f565b604051808215151515815260200191505060405180910390f35b34801561079457600080fd5b506107e1600480360360408110156107ab57600080fd5b81019080803573ffffffffffffffffffffffffffffffffffffffff16906020019092919080359060200190929190505050611620565b604051808215151515815260200191505060405180910390f35b34801561080757600080fd5b5061081061163e565b6040518082815260200191505060405180910390f35b34801561083257600080fd5b506108756004803603602081101561084957600080fd5b81019080803573ffffffffffffffffffffffffffffffffffffffff169060200190929190505050611644565b604051808215151515815260200191505060405180910390f35b34801561089b57600080fd5b506108fe600480360360408110156108b257600080fd5b81019080803573ffffffffffffffffffffffffffffffffffffffff169060200190929190803573ffffffffffffffffffffffffffffffffffffffff169060200190929190505050611661565b6040518082815260200191505060405180910390f35b6000600960008373ffffffffffffffffffffffffffffffffffffffff1673ffffffffffffffffffffffffffffffffffffffff168152602001908152602001600020549050919050565b606060008054600181600116156101000203166002900480601f0160208091040260200160405190810160405280929190818152602001828054600181600116156101000203166002900480156109f55780601f106109ca576101008083540402835291602001916109f5565b820191906000526020600020905b8154815290600101906020018083116109d857829003601f168201915b5050505050905090565b6000610a13610a0c6116e8565b84846116f0565b6001905092915050565b6000600554905090565b6000610a34848484611971565b610b3984610a406116e8565b610b3485606060405190810160405280602881526020017f45524332303a207472616e7366657220616d6f756e742065786365656473206181526020017f6c6c6f77616e6365000000000000000000000000000000000000000000000000815250600460008b73ffffffffffffffffffffffffffffffffffffffff1673ffffffffffffffffffffffffffffffffffffffff1681526020019081526020016000206000610aea6116e8565b73ffffffffffffffffffffffffffffffffffffffff1673ffffffffffffffffffffffffffffffffffffffff16815260200190815260200160002054611acd9092919063ffffffff16565b6116f0565b600190509392505050565b6000610b4e611b8f565b9050600a60009054906101000a900473ffffffffffffffffffffffffffffffffffffffff1673ffffffffffffffffffffffffffffffffffffffff1663a9059cbb33836040518363ffffffff167c0100000000000000000000000000000000000000000000000000000000028152600401808373ffffffffffffffffffffffffffffffffffffffff1673ffffffffffffffffffffffffffffffffffffffff16815260200182815260200192505050602060405180830381600087803b158015610c1557600080fd5b505af1158015610c29573d6000803e3d6000fd5b505050506040513d6020811015610c3f57600080fd5b81019080805190602001909291905050501515610cea576040517f08c379a00000000000000000000000000000000000000000000000000000000081526004018080602001828103825260318152602001807f4644545f4552433230457874656e73696f6e2e776974686472617746756e647381526020017f3a205452414e534645525f4641494c454400000000000000000000000000000081525060400191505060405180910390fd5b610cf2611c87565b5050565b6000600a60009054906101000a900473ffffffffffffffffffffffffffffffffffffffff1673ffffffffffffffffffffffffffffffffffffffff1663dd62ed3e33306040518363ffffffff167c0100000000000000000000000000000000000000000000000000000000028152600401808373ffffffffffffffffffffffffffffffffffffffff1673ffffffffffffffffffffffffffffffffffffffff1681526020018273ffffffffffffffffffffffffffffffffffffffff1673ffffffffffffffffffffffffffffffffffffffff1681526020019250505060206040518083038186803b158015610de757600080fd5b505afa158015610dfb573d6000803e3d6000fd5b505050506040513d6020811015610e1157600080fd5b8101908080519060200190929190505050111515610e2e57600080fd5b6000600a60009054906101000a900473ffffffffffffffffffffffffffffffffffffffff1673ffffffffffffffffffffffffffffffffffffffff1663dd62ed3e33306040518363ffffffff167c0100000000000000000000000000000000000000000000000000000000028152600401808373ffffffffffffffffffffffffffffffffffffffff1673ffffffffffffffffffffffffffffffffffffffff1681526020018273ffffffffffffffffffffffffffffffffffffffff1673ffffffffffffffffffffffffffffffffffffffff1681526020019250505060206040518083038186803b158015610f1f57600080fd5b505afa158015610f33573d6000803e3d6000fd5b505050506040513d6020811015610f4957600080fd5b81019080805190602001909291905050509050600a60009054906101000a900473ffffffffffffffffffffffffffffffffffffffff1673ffffffffffffffffffffffffffffffffffffffff166323b872dd3330846040518463ffffffff167c0100000000000000000000000000000000000000000000000000000000028152600401808473ffffffffffffffffffffffffffffffffffffffff1673ffffffffffffffffffffffffffffffffffffffff1681526020018373ffffffffffffffffffffffffffffffffffffffff1673ffffffffffffffffffffffffffffffffffffffff1681526020018281526020019350505050602060405180830381600087803b15801561105557600080fd5b505af1158015611069573d6000803e3d6000fd5b505050506040513d602081101561107f57600080fd5b8101908080519060200190929190505050151561109b57600080fd5b6110a3611da6565b50565b6000600260009054906101000a900460ff16905090565b60006111666110ca6116e8565b8461116185600460006110db6116e8565b73ffffffffffffffffffffffffffffffffffffffff1673ffffffffffffffffffffffffffffffffffffffff16815260200190815260200160002060008973ffffffffffffffffffffffffffffffffffffffff1673ffffffffffffffffffffffffffffffffffffffff16815260200190815260200160002054611dd090919063ffffffff16565b6116f0565b6001905092915050565b600061118261117d6116e8565b611644565b151561121c576040517f08c379a00000000000000000000000000000000000000000000000000000000081526004018080602001828103825260308152602001807f4d696e746572526f6c653a2063616c6c657220646f6573206e6f74206861766581526020017f20746865204d696e74657220726f6c650000000000000000000000000000000081525060400191505060405180910390fd5b6112268383611e5a565b6001905092915050565b600061128c600960008473ffffffffffffffffffffffffffffffffffffffff1673ffffffffffffffffffffffffffffffffffffffff1681526020019081526020016000205461127e84611293565b611f1990919063ffffffff16565b9050919050565b6000700100000000000000000000000000000000611325611320600860008673ffffffffffffffffffffffffffffffffffffffff1673ffffffffffffffffffffffffffffffffffffffff1681526020019081526020016000205461131261130d6112fc8861135c565b600754611f6390919063ffffffff16565b612030565b61204f90919063ffffffff16565b612093565b81151561132e57fe5b049050919050565b600a60009054906101000a900473ffffffffffffffffffffffffffffffffffffffff1681565b6000600360008373ffffffffffffffffffffffffffffffffffffffff1673ffffffffffffffffffffffffffffffffffffffff168152602001908152602001600020549050919050565b606060018054600181600116156101000203166002900480601f01602080910402602001604051908101604052809291908181526020018280546001816001161561010002031660029004801561143d5780601f106114125761010080835404028352916020019161143d565b820191906000526020600020905b81548152906001019060200180831161142057829003601f168201915b5050505050905090565b6114576114526116e8565b611644565b15156114f1576040517f08c379a00000000000000000000000000000000000000000000000000000000081526004018080602001828103825260308152602001807f4d696e746572526f6c653a2063616c6c657220646f6573206e6f74206861766581526020017f20746865204d696e74657220726f6c650000000000000000000000000000000081525060400191505060405180910390fd5b6114fa816120ac565b50565b61150d6115086116e8565b612106565b565b600061161661151c6116e8565b8461161185606060405190810160405280602581526020017f45524332303a2064656372656173656420616c6c6f77616e63652062656c6f7781526020017f207a65726f0000000000000000000000000000000000000000000000000000008152506004600061158a6116e8565b73ffffffffffffffffffffffffffffffffffffffff1673ffffffffffffffffffffffffffffffffffffffff16815260200190815260200160002060008a73ffffffffffffffffffffffffffffffffffffffff1673ffffffffffffffffffffffffffffffffffffffff16815260200190815260200160002054611acd9092919063ffffffff16565b6116f0565b6001905092915050565b600061163461162d6116e8565b8484611971565b6001905092915050565b600b5481565b600061165a82600661216090919063ffffffff16565b9050919050565b6000600460008473ffffffffffffffffffffffffffffffffffffffff1673ffffffffffffffffffffffffffffffffffffffff16815260200190815260200160002060008373ffffffffffffffffffffffffffffffffffffffff1673ffffffffffffffffffffffffffffffffffffffff16815260200190815260200160002054905092915050565b600033905090565b600073ffffffffffffffffffffffffffffffffffffffff168373ffffffffffffffffffffffffffffffffffffffff16141515156117bb576040517f08c379a00000000000000000000000000000000000000000000000000000000081526004018080602001828103825260248152602001807f45524332303a20617070726f76652066726f6d20746865207a65726f2061646481526020017f726573730000000000000000000000000000000000000000000000000000000081525060400191505060405180910390fd5b600073ffffffffffffffffffffffffffffffffffffffff168273ffffffffffffffffffffffffffffffffffffffff1614151515611886576040517f08c379a00000000000000000000000000000000000000000000000000000000081526004018080602001828103825260228152602001807f45524332303a20617070726f766520746f20746865207a65726f20616464726581526020017f737300000000000000000000000000000000000000000000000000000000000081525060400191505060405180910390fd5b80600460008573ffffffffffffffffffffffffffffffffffffffff1673ffffffffffffffffffffffffffffffffffffffff16815260200190815260200160002060008473ffffffffffffffffffffffffffffffffffffffff1673ffffffffffffffffffffffffffffffffffffffff168152602001908152602001600020819055508173ffffffffffffffffffffffffffffffffffffffff168373ffffffffffffffffffffffffffffffffffffffff167f8c5be1e5ebec7d5bd14f71427d1e84f3dd0314c0f7b2291e5b200ac8c7c3b925836040518082815260200191505060405180910390a3505050565b61197c838383612283565b600061199b61199683600754611f6390919063ffffffff16565b612030565b90506119ef81600860008773ffffffffffffffffffffffffffffffffffffffff1673ffffffffffffffffffffffffffffffffffffffff1681526020019081526020016000205461204f90919063ffffffff16565b600860008673ffffffffffffffffffffffffffffffffffffffff1673ffffffffffffffffffffffffffffffffffffffff16815260200190815260200160002081905550611a8481600860008673ffffffffffffffffffffffffffffffffffffffff1673ffffffffffffffffffffffffffffffffffffffff1681526020019081526020016000205461260b90919063ffffffff16565b600860008573ffffffffffffffffffffffffffffffffffffffff1673ffffffffffffffffffffffffffffffffffffffff1681526020019081526020016000208190555050505050565b60008383111582901515611b7c576040517f08c379a00000000000000000000000000000000000000000000000000000000081526004018080602001828103825283818151815260200191508051906020019080838360005b83811015611b41578082015181840152602081019050611b26565b50505050905090810190601f168015611b6e5780820380516001836020036101000a031916815260200191505b509250505060405180910390fd5b5060008385039050809150509392505050565b600080611b9b33611230565b9050611bef81600960003373ffffffffffffffffffffffffffffffffffffffff1673ffffffffffffffffffffffffffffffffffffffff16815260200190815260200160002054611dd090919063ffffffff16565b600960003373ffffffffffffffffffffffffffffffffffffffff1673ffffffffffffffffffffffffffffffffffffffff168152602001908152602001600020819055503373ffffffffffffffffffffffffffffffffffffffff167feaff4b37086828766ad3268786972c0cd24259d4c87a80f9d3963a3c3d999b0d826040518082815260200191505060405180910390a28091505090565b600080600b549050600a60009054906101000a900473ffffffffffffffffffffffffffffffffffffffff1673ffffffffffffffffffffffffffffffffffffffff166370a08231306040518263ffffffff167c0100000000000000000000000000000000000000000000000000000000028152600401808273ffffffffffffffffffffffffffffffffffffffff1673ffffffffffffffffffffffffffffffffffffffff16815260200191505060206040518083038186803b158015611d4a57600080fd5b505afa158015611d5e573d6000803e3d6000fd5b505050506040513d6020811015611d7457600080fd5b8101908080519060200190929190505050600b81905550611da081600b5461260b90919063ffffffff16565b91505090565b6000611db0611c87565b90506000811315611dcd57611dcc611dc782612093565b61264d565b5b50565b6000808284019050838110151515611e50576040517f08c379a000000000000000000000000000000000000000000000000000000000815260040180806020018281038252601b8152602001807f536166654d6174683a206164646974696f6e206f766572666c6f77000000000081525060200191505060405180910390fd5b8091505092915050565b611e64828261279d565b611ed2611e84611e7f83600754611f6390919063ffffffff16565b612030565b600860008573ffffffffffffffffffffffffffffffffffffffff1673ffffffffffffffffffffffffffffffffffffffff1681526020019081526020016000205461260b90919063ffffffff16565b600860008473ffffffffffffffffffffffffffffffffffffffff1673ffffffffffffffffffffffffffffffffffffffff168152602001908152602001600020819055505050565b6000611f5b83836040805190810160405280601e81526020017f536166654d6174683a207375627472616374696f6e206f766572666c6f770000815250611acd565b905092915050565b600080831415611f76576000905061202a565b60008284029050828482811515611f8957fe5b04141515612025576040517f08c379a00000000000000000000000000000000000000000000000000000000081526004018080602001828103825260218152602001807f536166654d6174683a206d756c7469706c69636174696f6e206f766572666c6f81526020017f770000000000000000000000000000000000000000000000000000000000000081525060400191505060405180910390fd5b809150505b92915050565b6000808290506000811215151561204657600080fd5b80915050919050565b6000808284019050600083121580156120685750838112155b8061207e575060008312801561207d57508381125b5b151561208957600080fd5b8091505092915050565b60008082121515156120a457600080fd5b819050919050565b6120c081600661295c90919063ffffffff16565b8073ffffffffffffffffffffffffffffffffffffffff167f6ae172837ea30b801fbfcdd4108aa1d5bf8ff775444fd70256b44e6bf3dfc3f660405160405180910390a250565b61211a816006612a3990919063ffffffff16565b8073ffffffffffffffffffffffffffffffffffffffff167fe94479a9f7e1952cc78f2d6baab678adc1b772d936c6583def489e524cb6669260405160405180910390a250565b60008073ffffffffffffffffffffffffffffffffffffffff168273ffffffffffffffffffffffffffffffffffffffff161415151561222c576040517f08c379a00000000000000000000000000000000000000000000000000000000081526004018080602001828103825260228152602001807f526f6c65733a206163636f756e7420697320746865207a65726f20616464726581526020017f737300000000000000000000000000000000000000000000000000000000000081525060400191505060405180910390fd5b8260000160008373ffffffffffffffffffffffffffffffffffffffff1673ffffffffffffffffffffffffffffffffffffffff16815260200190815260200160002060009054906101000a900460ff16905092915050565b600073ffffffffffffffffffffffffffffffffffffffff168373ffffffffffffffffffffffffffffffffffffffff161415151561234e576040517f08c379a00000000000000000000000000000000000000000000000000000000081526004018080602001828103825260258152602001807f45524332303a207472616e736665722066726f6d20746865207a65726f20616481526020017f647265737300000000000000000000000000000000000000000000000000000081525060400191505060405180910390fd5b600073ffffffffffffffffffffffffffffffffffffffff168273ffffffffffffffffffffffffffffffffffffffff1614151515612419576040517f08c379a00000000000000000000000000000000000000000000000000000000081526004018080602001828103825260238152602001807f45524332303a207472616e7366657220746f20746865207a65726f206164647281526020017f657373000000000000000000000000000000000000000000000000000000000081525060400191505060405180910390fd5b6124c981606060405190810160405280602681526020017f45524332303a207472616e7366657220616d6f756e742065786365656473206281526020017f616c616e63650000000000000000000000000000000000000000000000000000815250600360008773ffffffffffffffffffffffffffffffffffffffff1673ffffffffffffffffffffffffffffffffffffffff16815260200190815260200160002054611acd9092919063ffffffff16565b600360008573ffffffffffffffffffffffffffffffffffffffff1673ffffffffffffffffffffffffffffffffffffffff1681526020019081526020016000208190555061255e81600360008573ffffffffffffffffffffffffffffffffffffffff1673ffffffffffffffffffffffffffffffffffffffff16815260200190815260200160002054611dd090919063ffffffff16565b600360008473ffffffffffffffffffffffffffffffffffffffff1673ffffffffffffffffffffffffffffffffffffffff168152602001908152602001600020819055508173ffffffffffffffffffffffffffffffffffffffff168373ffffffffffffffffffffffffffffffffffffffff167fddf252ad1be2c89b69c2b068fc378daa952ba7f163c4a11628f55a4df523b3ef836040518082815260200191505060405180910390a3505050565b600080821215801561261f57508282840313155b806126375750600082128015612636575082828403135b5b151561264257600080fd5b818303905092915050565b6000612657610a1d565b1115156126f2576040517f08c379a00000000000000000000000000000000000000000000000000000000081526004018080602001828103825260378152602001807f46756e6473446973747269627574696f6e546f6b656e2e5f646973747269627581526020017f746546756e64733a20535550504c595f49535f5a45524f00000000000000000081525060400191505060405180910390fd5b600081111561279a57612745612706610a1d565b61272a70010000000000000000000000000000000084611f6390919063ffffffff16565b81151561273357fe5b04600754611dd090919063ffffffff16565b6007819055503373ffffffffffffffffffffffffffffffffffffffff167f26536799ace2c3dbe12e638ec3ade6b4173dcf1289be0a58d51a5003015649bd826040518082815260200191505060405180910390a25b50565b600073ffffffffffffffffffffffffffffffffffffffff168273ffffffffffffffffffffffffffffffffffffffff1614151515612842576040517f08c379a000000000000000000000000000000000000000000000000000000000815260040180806020018281038252601f8152602001807f45524332303a206d696e7420746f20746865207a65726f20616464726573730081525060200191505060405180910390fd5b61285781600554611dd090919063ffffffff16565b6005819055506128af81600360008573ffffffffffffffffffffffffffffffffffffffff1673ffffffffffffffffffffffffffffffffffffffff16815260200190815260200160002054611dd090919063ffffffff16565b600360008473ffffffffffffffffffffffffffffffffffffffff1673ffffffffffffffffffffffffffffffffffffffff168152602001908152602001600020819055508173ffffffffffffffffffffffffffffffffffffffff16600073ffffffffffffffffffffffffffffffffffffffff167fddf252ad1be2c89b69c2b068fc378daa952ba7f163c4a11628f55a4df523b3ef836040518082815260200191505060405180910390a35050565b6129668282612160565b1515156129db576040517f08c379a000000000000000000000000000000000000000000000000000000000815260040180806020018281038252601f8152602001807f526f6c65733a206163636f756e7420616c72656164792068617320726f6c650081525060200191505060405180910390fd5b60018260000160008373ffffffffffffffffffffffffffffffffffffffff1673ffffffffffffffffffffffffffffffffffffffff16815260200190815260200160002060006101000a81548160ff0219169083151502179055505050565b612a438282612160565b1515612add576040517f08c379a00000000000000000000000000000000000000000000000000000000081526004018080602001828103825260218152602001807f526f6c65733a206163636f756e7420646f6573206e6f74206861766520726f6c81526020017f650000000000000000000000000000000000000000000000000000000000000081525060400191505060405180910390fd5b60008260000160008373ffffffffffffffffffffffffffffffffffffffff1673ffffffffffffffffffffffffffffffffffffffff16815260200190815260200160002060006101000a81548160ff021916908315150217905550505056fea165627a7a723058200aa69374eeb2d0b9458ea7c5aa47fe3cb4b2d86cd8895081a1f7debb066940cd0029",
  "source": "pragma solidity ^0.5.0;\r\n\r\nimport \"./external/math/SafeMathUint.sol\";\r\nimport \"./external/math/SafeMathInt.sol\";\r\n\r\nimport \"./IFundsDistributionToken.sol\";\r\nimport \"./FundsDistributionToken.sol\";\r\n\r\n\r\ncontract FDT_ERC20Extension is IFundsDistributionToken, FundsDistributionToken {\r\n\r\n\tusing SafeMathUint for uint256;\r\n\tusing SafeMathInt for int256;\r\n\r\n\t// token to be used for sending to this contract\r\n\tIERC20 public fundsToken;\r\n\r\n\t// balance of fundsToken that this contract currently holds\r\n\tuint256 public fundsTokenBalance;\r\n\r\n\tmodifier onlyFundsToken () {\r\n\t\trequire(msg.sender == address(fundsToken), \"FDT_ERC20Extension.onlyFundsToken: UNAUTHORISED_SENDER\");\r\n\t\t_;\r\n\t}\r\n\r\n\tconstructor(\r\n\t\tstring memory name, \r\n\t\tstring memory symbol,\r\n\t\tIERC20 _fundsToken\r\n\t)\r\n\t\tpublic\r\n\t\tFundsDistributionToken(name, symbol) \r\n\t{\r\n\t\trequire(address(_fundsToken) != address(0), \"FDT_ERC20Extension: INVALID_FUNDS_TOKEN_ADDRESS\");\r\n\r\n\t\tfundsToken = _fundsToken;\r\n\t}\r\n\r\n\t/**\r\n\t * @notice Withdraws available funds for user.\r\n\t */\r\n\tfunction withdrawFunds() \r\n\t\texternal \r\n\t{\r\n\t\tuint256 withdrawableFunds = _prepareWithdraw();\r\n\t\t\r\n\t\trequire(fundsToken.transfer(msg.sender, withdrawableFunds), \"FDT_ERC20Extension.withdrawFunds: TRANSFER_FAILED\");\r\n\r\n\t\t_updateFundsTokenBalance();\r\n\t}\r\n\r\n\t/**\r\n\t * @dev Updates the current funds token balance \r\n\t * and returns the difference of new and previous funds token balances\r\n\t * @return A int256 representing the difference of the new and previous funds token balance\r\n\t */\r\n\tfunction _updateFundsTokenBalance() internal returns (int256) {\r\n\t\tuint256 prevFundsTokenBalance = fundsTokenBalance;\r\n\t\t\r\n\t\tfundsTokenBalance = fundsToken.balanceOf(address(this));\r\n\r\n\t\treturn int256(fundsTokenBalance).sub(int256(prevFundsTokenBalance));\r\n\t}\r\n\r\n\t/**\r\n\t * @notice Register a payment of funds in tokens. May be called directly after a deposit is made.\r\n\t * @dev Calls _updateFundsTokenBalance(), whereby the contract computes the delta of the previous and the new \r\n\t * funds token balance and increments the total received funds (cumulative) by delta by calling _registerFunds()\r\n\t */\r\n\tfunction updateFundsReceived() internal {\r\n\t\tint256 newFunds = _updateFundsTokenBalance();\r\n\r\n\t\tif (newFunds > 0) {\r\n\t\t\t_distributeFunds(newFunds.toUint256Safe());\r\n\t\t}\r\n\t}\r\n\r\n\t/**\r\n\t * @notice Pay fundsToken to contract\r\n\t * Front end should call fundsToken contract to approve transfer - https://ethereum.stackexchange.com/questions/57286/make-function-payable-for-a-specific-erc20-token\r\n\t * https://ethereum.stackexchange.com/questions/30527/smart-contract-to-receive-tokens-and-give-ether/30532\r\n\t */\r\n\r\n\tfunction payToContract()\r\n\t\texternal\r\n\t{\r\n\t\trequire(fundsToken.allowance(msg.sender, address(this)) > 0);\r\n\t\tuint256 amount = fundsToken.allowance(msg.sender, address(this));\r\n\t\trequire(fundsToken.transferFrom(msg.sender, address(this), amount));\r\n\t\tupdateFundsReceived();\r\n\r\n\t}\r\n}",
  "sourcePath": "C:/Users/Gary/funds-distribution-token-custom/contracts/FDT_ERC20Extension.sol",
  "compiler": {
    "name": "solc",
    "version": "0.5.0+commit.1d4f565a.Emscripten.clang"
  },
  "schemaVersion": "3.0.2",
  "updatedAt": "2019-10-15T14:57:14.865Z",
  "devdoc": {
    "methods": {
      "accumulativeFundsOf(address)": {
        "details": "accumulativeFundsOf(_owner) = withdrawableFundsOf(_owner) + withdrawnFundsOf(_owner)\r = (pointsPerShare * balanceOf(_owner) + pointsCorrection[_owner]) / pointsMultiplier\r",
        "params": {
          "_owner": "The address of a token holder.\r"
        },
        "return": "The amount of funds that `_owner` has earned in total.\r"
      },
      "allowance(address,address)": {
        "details": "See {IERC20-allowance}.\r"
      },
      "approve(address,uint256)": {
        "details": "See {IERC20-approve}.\r      * Requirements:\r      * - `spender` cannot be the zero address.\r"
      },
      "balanceOf(address)": {
        "details": "See {IERC20-balanceOf}.\r"
      },
      "decimals()": {
        "details": "Returns the number of decimals used to get its user representation.\r For example, if `decimals` equals `2`, a balance of `505` tokens should\r be displayed to a user as `5,05` (`505 / 10 ** 2`).\r      * Tokens usually opt for a value of 18, imitating the relationship between\r Ether and Wei.\r      * NOTE: This information is only used for _display_ purposes: it in\r no way affects any of the arithmetic of the contract, including\r {IERC20-balanceOf} and {IERC20-transfer}.\r"
      },
      "decreaseAllowance(address,uint256)": {
        "details": "Atomically decreases the allowance granted to `spender` by the caller.\r      * This is an alternative to {approve} that can be used as a mitigation for\r problems described in {IERC20-approve}.\r      * Emits an {Approval} event indicating the updated allowance.\r      * Requirements:\r      * - `spender` cannot be the zero address.\r - `spender` must have allowance for the caller of at least\r `subtractedValue`.\r"
      },
      "increaseAllowance(address,uint256)": {
        "details": "Atomically increases the allowance granted to `spender` by the caller.\r      * This is an alternative to {approve} that can be used as a mitigation for\r problems described in {IERC20-approve}.\r      * Emits an {Approval} event indicating the updated allowance.\r      * Requirements:\r      * - `spender` cannot be the zero address.\r"
      },
      "mint(address,uint256)": {
        "details": "See {ERC20-_mint}.\r      * Requirements:\r      * - the caller must have the {MinterRole}.\r"
      },
      "name()": {
        "details": "Returns the name of the token.\r"
      },
      "symbol()": {
        "details": "Returns the symbol of the token, usually a shorter version of the\r name.\r"
      },
      "totalSupply()": {
        "details": "See {IERC20-totalSupply}.\r"
      },
      "transfer(address,uint256)": {
        "details": "See {IERC20-transfer}.\r      * Requirements:\r      * - `recipient` cannot be the zero address.\r - the caller must have a balance of at least `amount`.\r"
      },
      "transferFrom(address,address,uint256)": {
        "details": "See {IERC20-transferFrom}.\r      * Emits an {Approval} event indicating the updated allowance. This is not\r required by the EIP. See the note at the beginning of {ERC20};\r      * Requirements:\r - `sender` and `recipient` cannot be the zero address.\r - `sender` must have a balance of at least `amount`.\r - the caller must have allowance for `sender`'s tokens of at least\r `amount`.\r"
      },
      "withdrawableFundsOf(address)": {
        "params": {
          "_owner": "The address of a token holder.\r"
        },
        "return": "The amount funds that `_owner` can withdraw.\r"
      },
      "withdrawnFundsOf(address)": {
        "params": {
          "_owner": "The address of a token holder.\r"
        },
        "return": "The amount of funds that `_owner` has withdrawn.\r"
      }
    }
  },
  "userdoc": {
    "methods": {
      "accumulativeFundsOf(address)": {
        "notice": "prev. accumulativeDividendOf\rView the amount of funds that an address has earned in total.\r"
      },
      "payToContract()": {
        "notice": "Pay fundsToken to contract\r Front end should call fundsToken contract to approve transfer - https://ethereum.stackexchange.com/questions/57286/make-function-payable-for-a-specific-erc20-token\r https://ethereum.stackexchange.com/questions/30527/smart-contract-to-receive-tokens-and-give-ether/30532\r"
      },
      "withdrawFunds()": {
        "notice": "Withdraws available funds for user.\r"
      },
      "withdrawableFundsOf(address)": {
        "notice": "prev. withdrawableDividendOf\rView the amount of funds that an address can withdraw.\r"
      },
      "withdrawnFundsOf(address)": {
        "notice": "prev. withdrawnDividendOf\rView the amount of funds that an address has withdrawn.\r"
      }
    }
  }
}